:020000040800F2
:1000000000C00130510900086B09000869090008A7
:100010006B0900086B0900086B0900086B090008F0
:100020000000000000000000000000006B09000854
:100030006B090008000000006B090008990A00081D
:100040006B0900086B0900086B0900086B090008C0
:100050006B0900086B0900086B0900086B090008B0
:100060006B0900086B0900086B0900086B090008A0
:100070006B0900086B0900086B0900086B09000890
:100080006B0900086B0900086B09000800000000FC
:100090006B0900086B090008000000006B090008EC
:1000A0006B0900086B0900086B0900086B09000860
:1000B0006B0900086B0900086B0900086B09000850
:1000C000000000006B090008000000006B09000838
:1000D0006B0900086B090008FD0F00086B09000898
:1000E0006B0900086B0900086B0900086B09000820
:1000F0006B0900086B0900086B090008000000008C
:1001000000000000000000006B0900086B090008F7
:100110006B0900086B0900086B0900086B090008EF
:100120006B0900086B0900086B0900086B090008DF
:100130006B0900086B0900086B090008000000004B
:100140006B0900086B090008000000006B0900083B
:100150006B0900086B0900086B0900086B090008AF
:10016000000000000000000000000000000000008F
:10017000000000000000000000000000000000007F
:1001800000000000000000006B09000800000000F3
:10019000000000000000000000000000000000005F
:1001A000000000000000000000000000000000004F
:1001B0000000000000000000000000006B090008C3
:1001C000000000000000000000000000000000002F
:1001D00000000000000000006B09000800000000A3
:1001E0006B09000800000000000000000000000093
:1001F00000000000000000000000000000000000FF
:1002000000000000000000000000000000000000EE
:1002100000000000000000000000000000000000DE
:1002200000000000000000000000000000000000CE
:10093000000000000000000000000000DFF80CD004
:1009400003F002F800480047BD0B000800C001306A
:10095000064880F30988064880F30A8880F30B88EC
:1009600002F01AFDFFF7EAFFFEE7FEE700C00130E4
:1009700000B0013080B540F23400C3F200000068DE
:1009800044F6D351C1F26201A0FB0110800900F0CE
:100990000BF810B1FFE7FFE7FEE74FF0FF30032150
:1009A00000F02CF880BD00BF80B584B002900298A2
:1009B0000138B0F1807F03D3FFE7012003901AE0F4
:1009C000029801384EF21401CEF2000108604FF097
:1009D000FF300721019100F011F801994EF2180241
:1009E000CEF20002002010604EF21002CEF20002A1
:1009F00011600390FFE7039804B080BD82B08DF8CA
:100A0000070000919DF9070000280AD4FFE700982D
:100A100040019DF907104EF20042CEF200028854C8
:100A20000BE0009840019DF8071001F00F014EF611
:100A30001452CEF200028854FFE702B0704700BFA4
:100A400081B0ADF80200BDF80200ADF80000FFE78C
:100A5000BDF80000012815DBFFE740F23000C3F2CB
:100A600000000078C00760B1FFE740F23001C3F238
:100A7000000100200870BDF800000138ADF800004A
:100A8000FFE7E5E701B0704740F2D410C3F2000081
:100A900000687047704700BF80B540F2D411C3F2C0
:100AA000000108680130086040F23001C3F2000123
:100AB0000120087000F090F880BD000041F2300184
:100AC000C4F20201086840F08050086047F200015B
:100AD000C4F20001086840F44040086041F200019F
:100AE000C4F20201086840F480300860FFE741F278
:100AF0000000C4F20200006800F40030B0F5003FCE
:100B000001D0FFE7F3E741F24801C4F2020140F2ED
:100B10001D10C0F20F00086041F20001C4F2020192
:100B2000086840F080700860FFE741F20000C4F2FE
:100B3000020000688001002801D4FFE7F5E741F2D8
:100B40002801C4F20201086840F40050086042F233
:100B50000001C4F202011320086041F20401C4F252
:100B600002014FF0E06008600868022262F30100B1
:100B70000860FFE741F20400C4F20200006800F0E0
:100B80000C00082801D0FFE7F4E740F23401C3F27B
:100B900000014DF60000C0F2B850086040F2C811E4
:100BA000C3F20001086040F2D011C3F200010860F6
:100BB00040F2CC11C3F200010860704780B582B0EA
:100BC00000200190FFF77AFFFFF7D4FE00F008F84D
:100BD000FFE700F0C9F8FCE780B500F059F980BDE7
:100BE00080B582B00020019000F098FA01200090BA
:100BF00000F094FA019800F0D7FA009800F0D4FAC7
:100C00004FF4E13000F054F900F070FB00F016FCF6
:100C100000F054F8019840F20011C3F20001C8221C
:100C200000F04CFC38B9FFE740F21C01C3F20001B0
:100C30000020087024E040F23801C3F200010020D7
:100C4000C82200F031FD38B9FFE740F21C01C3F2C1
:100C500000010020087012E000F05EF838B1FFE7F4
:100C600040F21C01C3F200010120087006E040F2CE
:100C70001C01C3F2000100200870FFE7FFE7FFE757
:100C800040F21C00C3F200000078C00738B1FFE753
:100C900044F2AD20C0F6000002F068FE06E044F227
:100CA0008D20C0F6000002F061FEFFE740F21D015A
:100CB000C3F200010120087002B080BD80B582B08F
:100CC00000200190FFE70198C72822D8FFE702F033
:100CD0009BFB024644F6D350C1F2620052FB00F186
:100CE000080900EBD170FA2100FB11200130019AB4
:100CF00040F20011C3F200018854019A40F2380119
:100D0000C3F2000100208854FFE7019801300190F0
:100D1000D9E702B080BD00BF82B000200090FFE79D
:100D20000098C72817D8FFE7009A40F20010C3F2D6
:100D30000000805C40F23801C3F20001895C884207
:100D400004D0FFE700208DF8070008E0FFE70098D7
:100D500001300090E4E701208DF80700FFE79DF8DF
:100D6000070002B0704700BF80B582B00A20FFF7CD
:100D700067FE002000F044FA80B1FFE740F218015E
:100D8000C3F200010A78012090430870FFE70020B9
:100D900000F036FA08B1FFE7F9E7FFE7012000F0BD
:100DA0002FFA80B1FFE740F22801C3F20001087872
:100DB00080F001000870FFE7012000F021FA08B17F
:100DC000FFE7F9E7FFE740F22002C3F200021068F4
:100DD000411C1160152858D3FFE740F22001C3F2EF
:100DE00000010020086040F21800C3F20000007803
:100DF000C00738B1FFE7002000F0C0F9012000F083
:100E0000BDF906E0002000F075F9012000F072F94C
:100E1000FFE740F22800C3F20000007850B9FFE776
:100E200000F0A8FA014644F27820C0F6000002F073
:100E30009DFD29E000F09EFA4CF6CD41CCF6CC4168
:100E4000A0FB01104009ADF804000020ADF8060039
:100E5000FFE7BDF80600BDF8041088420DDAFFE791
:100E600044F2CF20C0F6000002F080FDFFE7BDF89D
:100E700006000130ADF80600EBE744F2CC20C0F6E6
:100E8000000002F073FDFFE7FFE702B080BD00BF86
:100E900080B540F21D00C3F200000078C00728B101
:100EA000FFE700F0BBF900F06BFAFFE780BD000040
:100EB00080B590B00F9001210991084601F012FF12
:100EC00009994FF4003001F02BFF0020C4F2040018
:100ED0000390042106910722019201F0A7FA019ADA
:100EE00003980821029101F0A1FA03980699ADF840
:100EF000381018218DF83B10032105918DF83A1018
:100F00000EA9049101F072F9029B03980499059AC5
:100F1000ADF8383048238DF83B308DF83A2001F099
:100F200065F9059940F2D010C3F2000000680A90FC
:100F30000F980B908DF8301000208DF831008DF84F
:100F400032008DF833108DF834008DF835008DF8AF
:100F5000360044F20040C4F2000008900AA902F0F2
:100F600021F90898099902F097F906992620079027
:100F700000F00AF8079800F029F80898099A022169
:100F800002F0A2F910B080BD82B08DF80700009188
:100F90009DF9070000280AD4FFE7009840019DF959
:100FA00007104EF20042CEF2000288540BE0009887
:100FB00040019DF8071001F00F014EF61452CEF2D9
:100FC00000028854FFE702B0704700BF81B08DF87F
:100FD00003009DF9030000280ED4FFE79DF90310DC
:100FE00001F01F02012090404A094EF20011CEF29A
:100FF000000141F82200FFE701B0704780B584B0DE
:10100000FFF742FD029044F20040C4F2000002F0FB
:10101000A3F9800700282AD5FFE744F20040C4F274
:1010200000000190022102F0A3F9019802F08CF96E
:101030008DF80F00FFE744F20040C4F2000002F018
:101040008BF90007002809D4FFE7FFF71DFD02997F
:10105000401A032801D3FFE709E0ECE79DF80F10E1
:1010600044F20040C4F2000002F064F9FFE704B06B
:1010700080BD00BF80B584B002900191FFF704FDF0
:101080000090FFE744F20040C4F2000002F064F96F
:10109000000700280BD4FFE7FFF7F6FC0099401A81
:1010A000032803D3FFE7002003900BE0EAE79DF855
:1010B000081044F20040C4F2000002F03BF902982C
:1010C0000390FFE7039804B080BD000081B08DF865
:1010D00003009DF8032044F27020C0F6000030F8B1
:1010E000120040F20801C3F2000151F822104861D9
:1010F00001B0704781B08DF803009DF8032044F2E1
:101100007020C0F6000030F8120040F20801C3F26F
:10111000000151F82210086101B0704780B582B01B
:101120008DF807009DF8071044F26020C0F600001B
:1011300050F82100012101F0D5FD9DF80700FFF7CF
:10114000D9FF9DF8071044F27020C0F6000030F877
:101150001100ADF8000010208DF8030003208DF879
:1011600002009DF8071040F20800C3F2000050F89A
:101170002100694601F03AF802B080BD81B08DF8D7
:1011800003009DF8031044F27020C0F6000030F810
:10119000112040F20800C3F2000050F82110C86886
:1011A0005040C86001B0704780B582B08DF807002C
:1011B0009DF8071044F26820C0F6000050F82100A6
:1011C000012101F08FFD9DF8071044F27420C0F654
:1011D000000030F81100ADF8000048208DF8030041
:1011E00003208DF802009DF8071040F21000C3F2B2
:1011F000000050F82100694600F0F8FF02B080BD01
:1012000081B08DF803009DF8031040F22400C3F272
:101210000000405C00F0010001B0704780B540F272
:101220000040C4F20400012101F06AF8F0B9FFE7C0
:1012300040F22600C3F200000078092808DCFFE72E
:1012400040F22601C3F200010878013008700CE07A
:1012500040F22601C3F200010020087040F2240190
:10126000C3F2000101200870FFE70BE040F2260105
:10127000C3F200010020087040F22401C3F2000113
:101280000870FFE740F20040C4F20400022101F0C0
:1012900037F8F0B9FFE740F22600C3F200004078CB
:1012A000092808DCFFE740F22601C3F20001487874
:1012B000013048700CE040F22601C3F2000100202A
:1012C000487040F22401C3F2000101204870FFE79A
:1012D0000BE040F22601C3F200010020487040F20A
:1012E0002401C3F200014870FFE780BD80B588B0DB
:1012F00001210391084601F0F5FC03994FF4807039
:1013000001F02CFD02200190ADF81C00002002909D
:101310008DF81F0003208DF81E000020C4F2040089
:1013200007A900F063FF029903988DF814108DF857
:1013300016108DF815108DF817008DF8190042F26F
:101340000040C4F20100049005A900F06BFA039973
:10135000049800F0C3FA0199029A049800F06EFD17
:1013600003990498072200F003FD049800F080FE22
:1013700008B080BD40F22E00C3F200000088704724
:1013800080B582B0FFF780FB019040F22C00C3F2E1
:1013900000000078092838DCFFE742F20040C4F280
:1013A0000100012100F018FEFFE742F20040C4F204
:1013B000010000F0C1FB4007002809D4FFE7FFF758
:1013C00063FB0199401A032801D3FFE734E0ECE7FF
:1013D00042F20040C4F20100042100F00BFC42F292
:1013E0001C40C4F2010002686FF31F3240F22A0170
:1013F000C3F2000108881044088040F22C01C3F2B7
:10140000000108780130087016E040F22A01C3F2AA
:10141000000108884FF4A57200FB02F0000B40F2B7
:101420002E02C3F2000210800020088040F22C013E
:10143000C3F200010870FFE702B080BD80B586B03E
:1014400002200121009101F04DFC00994FF4800031
:1014500001F066FC40F20040C4F2040002904FF438
:1014600080610422019200F0E1FF019A02984FF49A
:10147000006100F0DBFF02984FF44061ADF81410FA
:101480001C218DF8171003218DF8161005A900F006
:10149000ADFE40F2CC10C3F200000068039048F2A9
:1014A000A060C0F20100049045F60000C4F2000004
:1014B00003A901F027F806B080BD00BF80B588B051
:1014C0008DF81E000691ADF816209DF81E008DF8CF
:1014D000150006980490BDF8160003909DF81E00B4
:1014E000BDF816100844B0F5807F04DDFFE700204A
:1014F0008DF81F004EE0FFE70398092825D3FFE78A
:101500009DF81520049B69464FF47A7048600820C6
:10151000086045F60000C4F20000A02100F03EF88B
:1015200020B9FFE700208DF81F0033E09DF815007B
:1015300008308DF815000498083004900398083896
:1015400003900620FFF77CFAD6E70398F0B1FFE797
:101550009DF81520049BBDF80C0069464FF47A7C79
:10156000C1F804C0086045F60000C4F20000A021E4
:1015700000F014F820B9FFE700208DF81F0009E003
:10158000002003900620FFF75BFAFFE701208DF8AB
:101590001F00FFE79DF81F0008B080BD10B588B0A0
:1015A0008C4686460B980A99CDF818E08DF817C03E
:1015B0008DF816200493ADF80E10ADF80C00FFF76F
:1015C00063FA01900698002101F028F89DF81700B1
:1015D0004008069948600698012101F01FF8069816
:1015E0009DF8161001F044F8FFE7069801F05AF84C
:1015F000400700280ED4FFE7FFF746FA0199401A8A
:10160000BDF80C10884204D9FFE700208DF81F00B8
:1016100046E0EAE700200290FFE70298BDF80E10CE
:10162000884221D2FFE706980499029A895C01F06A
:101630001FF8FFE7069801F035F8400700280ED4A0
:10164000FFE7FFF721FA0199401ABDF80C10884214
:1016500004D9FFE700208DF81F0021E0EAE7FFE74B
:10166000029801300290D8E7069801F021F8FFE7D0
:10167000069801F017F8C00770B1FFE7FFF704FA0A
:101680000199401ABDF80C10884204D9FFE70020E8
:101690008DF81F0004E0EBE701208DF81F00FFE745
:1016A0009DF81F0008B010BD80B586B08DF81600FB
:1016B0000491ADF80E209DF81600BDF80E100844F8
:1016C000B0F5807F04DDFFE700208DF817001BE0F8
:1016D0009DF81620049BBDF80E0069464FF47A7CF5
:1016E000C1F804C0086045F60000C4F20000A02163
:1016F00000F00EF820B9FFE700208DF8170003E096
:1017000001208DF81700FFE79DF8170006B080BD97
:1017100010B588B08C4686460B980A99CDF818E02B
:101720008DF817C08DF816200493ADF80E10ADF8A3
:101730000C00FFF7A9F901900698002100F06EFF58
:101740009DF817004008069948600698012100F0AE
:1017500065FF06989DF8161000F08AFFFFE70698CF
:1017600000F0A0FF400700280ED4FFE7FFF78CF938
:101770000199401ABDF80C10884204D9FFE70020F7
:101780008DF81F0049E0EAE700200290FFE7029889
:10179000BDF80E10884224D2FFE7069800F072FFD1
:1017A000FFE7069800F07EFF000700280ED4FFE751
:1017B000FFF76AF90199401ABDF80C10884204D964
:1017C000FFE700208DF81F0027E0EAE7069800F009
:1017D00061FF0499029A8854FFE702980130029051
:1017E000D5E7069800F064FFFFE7069800F05AFF7F
:1017F000C00770B1FFE7FFF747F90199401ABDF83C
:101800000C10884204D9FFE700208DF81F0004E087
:10181000EBE701208DF81F00FFE79DF81F0008B0DF
:1018200010BD000082B001900091009808B9FFE758
:1018300052E0019840680099097861F3C910019954
:1018400048600198806820F46060009A517892782E
:1018500002F0030240EA422001F0010140EAC12007
:10186000019988600198C06E47F6F4518843019948
:10187000C8660098C07801280AD1FFE7009840792F
:1018800000F001020199C86E40EA8200C86623E0B8
:101890000098C07802280AD1FFE70098007900F08C
:1018A0001F020199C86E40EA0210C86613E0009852
:1018B000C07803280ED1FFE70198C06E00990A791D
:1018C0004FF4F84101EA822162F3081108430199BB
:1018D000C866FFE7FFE7FFE702B0704782B00190FC
:1018E0008DF803109DF80300C00730B1FFE70199A0
:1018F000486840F00100486005E00199486820F020
:1019000001004860FFE702B0704700BF82B001905D
:101910008DF803109DF80300C00730B1FFE701996F
:10192000486840F00400486005E00199486820F0EC
:1019300004004860FFE702B0704700BF82B001902A
:101940008DF803109DF80300C00730B1FFE701993F
:10195000486840F00800486005E00199486820F0B8
:1019600008004860FFE702B0704700BF82B00190F6
:101970008DF803109DF80300C00730B1FFE701990F
:10198000886840F00800886005E00199886820F0C8
:1019900008008860FFE702B0704700BF83B0029084
:1019A00001918DF803209DF80300C007002860D046
:1019B000FFE79DF80400C00730B1FFE7029988688F
:1019C00040F000608860FFE79DF804008007002871
:1019D00006D5FFE70299886840F080608860FFE7DD
:1019E0009DF804004007002806D5FFE702998868A3
:1019F00040F001008860FFE79DF804000007002820
:101A000006D5FFE70299886840F002008860FFE78A
:101A10009DF80400C006002806D5FFE70299886EED
:101A200040F400108866FFE79DF804008006002857
:101A300006D5FFE70299886E40F008008866FFE748
:101A40009DF804004006002806D5FFE70299886E3D
:101A500040F004008866FFE79DF8040000060028B7
:101A600006D5FFE70299886E40F010008866FFE710
:101A70005FE09DF80400C00730B1FFE70299886875
:101A800020F000608860FFE79DF8040080070028D0
:101A900006D5FFE70299886820F080608860FFE73C
:101AA0009DF804004007002806D5FFE702998868E2
:101AB00020F001008860FFE79DF80400000700287F
:101AC00006D5FFE70299886820F002008860FFE7EA
:101AD0009DF80400C006002806D5FFE70299886E2D
:101AE00020F400108866FFE79DF8040080060028B7
:101AF00006D5FFE70299886E20F008008866FFE7A8
:101B00009DF804004006002806D5FFE70299886E7C
:101B100020F004008866FFE79DF804000006002816
:101B200006D5FFE70299886E20F010008866FFE76F
:101B3000FFE703B0704700BF82B001900020009023
:101B40000198806DC001002805D5FFE7009840F09E
:101B500010000090FFE70198806D0003002805D574
:101B6000FFE7009840F020000090FFE70198806DAB
:101B70004003002805D5FFE7009840F040000090A2
:101B8000FFE70198806DC002002805D5FFE70098A7
:101B900040F080000090FFE70198806D80030028EE
:101BA00005D5FFE7009840F001000090FFE701989D
:101BB000806DC003002805D5FFE7009840F00200C3
:101BC0000090FFE701984069C00728B1FFE700983F
:101BD00040F004000090FFE701984069800700286A
:101BE00005D5FFE7009840F008000090FFE7009857
:101BF00002B0704782B0019000919DF80000C006CD
:101C0000002805D5FFE701994FF080708865FFE750
:101C10009DF800008006002805D5FFE701994FF4E4
:101C200000208865FFE79DF800004006002805D5E4
:101C3000FFE701994FF480208865FFE79DF80000D9
:101C40000006002805D5FFE701994FF4801088654C
:101C5000FFE79DF80000C00728B1FFE701994FF4A6
:101C600000308865FFE79DF800008007002805D553
:101C7000FFE701994FF480308865FFE79DF8000089
:101C80004007002804D5FFE7019901204861FFE7DC
:101C90009DF800000007002804D5FFE70199022005
:101CA0004861FFE702B0704784B00390029101924F
:101CB000039800680090009800F49E00000C0299C0
:101CC0000860019830B1FFE70098C0F30150019916
:101CD0000860FFE7BDF8000004B0704784B00390CF
:101CE000029101920398029900EB810080690090B3
:101CF000019830B1FFE70098C0F3015001990860E6
:101D0000FFE7BDF8000004B0704700BF84B0039047
:101D1000029101920398D0F8900000900098C0F3CF
:101D2000044002990860019830B1FFE70098C0F3C1
:101D3000415001990860FFE7BDF8000004B070470A
:101D400084B00390029101920398029900EB810004
:101D5000D0F8B0000090019830B1FFE70098C0F3D0
:101D6000415001990860FFE7BDF8000004B07047DA
:101D700083B0029001918DF80320019807280ED8B6
:101D8000FFE70298006F01998A000F219140884374
:101D90009DF80310914008430299086727E00198D5
:101DA0000838072811D8FFE70198083801900298F1
:101DB000406F01998A000F21914088439DF80310DC
:101DC000914008430299486710E00198103801904B
:101DD0000298806F01998A000F21914088439DF8F5
:101DE00003109140084302998867FFE7FFE703B0BB
:101DF000704700BF82B001900091009830B9FFE7B2
:101E00000199886820F00400886015E001988068D6
:101E10004FF6FB71CFF6C7410840009A117852780F
:101E200002F0070240EAC24001F0030140EA01600B
:101E3000043001998860FFE702B0704783B00290D8
:101E400001918DF803200299886E20F001008866C8
:101E500001980299C860029880689DF8031061F3A8
:101E600010400299886003B0704700BF84B00390AF
:101E7000029101920298112801D3FFE73FE00399F4
:101E8000886E40F001008866029800F00F00039908
:101E9000486602980090029807280FD8FFE7039839
:101EA000C06D00998A00FF2191408843019901F09B
:101EB0000F01914008430399C86511E00398006E33
:101EC000009A6FF01F0101EB8202FF2191408843CD
:101ED000019901F00F019140084303990866FFE75B
:101EE0000398406E009901F1080201219140884356
:101EF000019909099140084303994866FFE704B036
:101F0000704700BF84B003900291019202980528A7
:101F100001D3FFE720E00399886E40F00200886655
:101F200002994FF4401000EA01500399C1F88C0067
:101F3000029800900398D0F88C00009901EB810280
:101F40001F2191408843019901F01F0191400843EE
:101F50000399C1F88C00FFE704B0704782B001908C
:101F60008DF803109DF80300C00730B1FFE7019919
:101F7000886E40F02000886605E00199886E20F0A8
:101F800020008866FFE702B0704700BF82B0019072
:101F90008DF803109DF80300C00730B1FFE70199E9
:101FA000886E40F04000886605E00199886E20F058
:101FB00040008866FFE702B0704700BF83B0029020
:101FC0000191009200986FF31F300299019A01EB82
:101FD0008201C86703B0704782B001908DF803108A
:101FE0009DF80300C00730B1FFE70199886840F40D
:101FF0008070886005E00199886820F480708860AE
:10200000FFE702B0704700BF82B0019000910098D6
:1020100030B9FFE70199486820F00200486025E0E8
:102020000199486840F0020048600198806840F6D5
:10203000FF71CEF6FF7108400099096801F00F02A8
:1020400040EA023001F0100140EA01600199886025
:102050000098426880686FF31F300021C0F6FF715E
:1020600001EA0241084401990861FFE702B07047A4
:1020700081B000900099886E40F480108866FFE778
:102080000098806DC001002801D4FFE7F8E70099AF
:102090004FF08070886501B0704700BF83B0029038
:1020A000019100200090FFE70098102822D8FFE758
:1020B00000994FF4007000EB412080B20299086053
:1020C000029800686FF35F200199009A41F822009E
:1020D000FFE70298806D4001002801D4FFE7F8E790
:1020E0000299886D40F080608865FFE700980130B4
:1020F0000090D9E7012003B0704700BF83B0029081
:10210000019100200090FFE7009810281BD8FFE7FE
:102110000198009950F82100013140EA41200299CC
:102120000860FFE70298806D4001002801D4FFE7B6
:10213000F8E70299886D40F080608865FFE70098B5
:1021400001300090E0E703B0704700BF82B001901B
:102150000091009808B9FFE71CE00198C06E6FF38A
:102160001940009991F800C04B788A78C9780CF032
:10217000070C40EA8C4003F00F0340EA435002F0A2
:10218000010240EA426001F0010140EA4140019948
:10219000C866FFE702B0704781B00090FFE7009883
:1021A000406900F004000099896D01F400110844B1
:1021B00008B1FFE7F3E700990020C8600099C865FF
:1021C000009908660099C1F88C000099886E20F08B
:1021D000020088660099886E20F0010088660099E8
:1021E000886840F48070886001B0704786B00590C0
:1021F00004910498C07800F00F0000900498C07813
:10220000C006002806D5FFE70498817800980843A7
:102210000090FFE70598019000208DF80E00FFE781
:102220009DF80E00072821D8FFE79DF80E008000DA
:102230008DF80F00049800889DF80E10C840C00764
:1022400068B1FFE7019800689DF80F200F219140C9
:10225000884300999140084301990860FFE7FFE730
:102260009DF80E0001308DF80E00D9E70598043076
:10227000019004984078029000208DF80E00FFE74E
:102280009DF80E00072820D8FFE79DF80E0080007B
:102290008DF80F0002989DF80E10C840C00768B175
:1022A000FFE7019800689DF80F200F2191408843B7
:1022B00000999140084301990860FFE7FFE79DF806
:1022C0000E0001308DF80E00DAE70498C078282857
:1022D00007D1FFE7049802880599486910434861CF
:1022E0000CE00498C078482807D1FFE704980288DA
:1022F0000599086910430861FFE7FFE706B07047DA
:1023000082B00190ADF8021001988068BDF802100B
:102310000840002818BF012002B0704781B000902B
:102320000098806880B201B0704700BF82B0019011
:10233000ADF802100198C068BDF8021008400028EE
:1023400018BF012002B0704781B000900098C068AB
:1023500080B201B0704700BF82B00190ADF80210AA
:10236000BDF802000199086102B0704782B0019087
:10237000ADF80210BDF802000199486102B0704743
:1023800082B00190ADF80210ADF80020BDF8000059
:1023900028B1FFE7BDF802000199086104E0BDF82B
:1023A000020001994861FFE702B0704782B00190D6
:1023B000ADF80210BDF802000199C86002B0704784
:1023C00082B00190ADF802108DF801209DF8010057
:1023D000C00738B1FFE7BDF80220019988691043B2
:1023E000886106E0BDF80220019988699043886100
:1023F000FFE702B0704700BF82B00190ADF8021055
:10240000BDF8020000F5803001998861BDF8020036
:1024100001998861BDF8020000F58030019988615A
:10242000019880690198806902B0704785B0049076
:10243000ADF80E108DF80D20002002900190049848
:10244000006A0090FFE7019807281ED8FFE701996E
:10245000BDF80E00C840C00798B1FFE701988000A2
:10246000029002990F2000FA01F100988843009031
:102470009DF80D00029900FA01F1009808430090C0
:10248000FFE7019801300190DDE7009804990862A8
:102490000498406A0090FFE701980F2821D8FFE7D1
:1024A0000199BDF80E00C840C007B0B1FFE701991F
:1024B0006FF01F0000EB8100029002990F2000FADC
:1024C00001F10098884300909DF80D00029900FAF0
:1024D00001F1009808430090FFE701980130019056
:1024E000DAE700980499486205B0704783B002901B
:1024F000019100920098029908620198029948623D
:1025000003B0704780B584B0029001910299C86E03
:1025100020F00100C8660298019A1168526800F024
:1025200023F820B9FFE700208DF80F0018E002998A
:10253000022008600299086820F0100008600299E3
:10254000086840F261521043086002990020086355
:10255000029988630299C86301208DF80F00FFE794
:102560009DF80F0004B080BD85B0039002910192E8
:1025700002984AF6AB21CAF6AA21A0FB01010198F4
:10258000B0EB111F04D9FFE700208DF8130024E001
:1025900002980199B0FBF1F0009000996FF00B00E8
:1025A00000EB51000399486100994FF0FF3000EBB8
:1025B00051000399886100996FF00D0000EB510004
:1025C0000399C86100996FF0020000EB5100039974
:1025D000086201208DF81300FFE79DF8130005B095
:1025E000704700BF82B0019000910199C86E20F041
:1025F0000100C8660199086820F049000860009849
:102600000078019988600199086840F0200008600E
:1026100001990020086302B0704700BF82B00190AA
:102620008DF803109DF80300C00730B1FFE7019952
:10263000C86E40F00100C86605E00199C86E20F040
:102640000100C866FFE702B0704700BF82B001908A
:102650008DF803109DF803000199486002B070479F
:1026600081B00090009840686FF39F2001B07047E0
:1026700082B001908DF803109DF803000199086164
:1026800002B0704781B0009000994FF480700861EB
:1026900001B0704781B0009000980069C0B201B0ED
:1026A000704700BF81B000900098006F01B0704784
:1026B00081B000900099C86E40F00200C866009892
:1026C000406D01B0704700BF83B0029001918DF85A
:1026D00003209DF80300C00730B1FFE7019A02997B
:1026E000086B1043086305E0019A0299086B904358
:1026F0000863FFE703B0704781B000900098006B5B
:1027000001B0704781B000900098406B0099096B50
:10271000084001B0704700BF82B0019000919DF861
:102720000000C00718B1FFE70198406CFFE79DF873
:1027300000004006002803D5FFE70198406DFFE741
:102740009DF80100C00718B1FFE70198C06DFFE7D1
:102750009DF801008007002803D5FFE70198006E6F
:10276000FFE79DF801004007002803D5FFE7019827
:10277000406EFFE79DF800008006002803D5FFE7C4
:102780000198006DFFE79DF800000006002803D5C2
:10279000FFE70198806DFFE702B0704780B58AB00F
:1027A000089007910898079949680978FFF760FF32
:1027B0000798C0690690FFE70898FFF773FF014686
:1027C000002049070029029006D4FFE70698002858
:1027D00018BF01200290FFE70298C00720B1FFE771
:1027E000069801380690E7E7069820B9FFE7002031
:1027F0008DF8270064E00798C069059001200490D7
:10280000FFE704980799097B88422CD2FFE70898D4
:1028100007994968049A895CFFF72AFFFFE708983F
:10282000FFF740FF0146002049070029019006D428
:10283000FFE70598002818BF01200190FFE70198E5
:10284000C00720B1FFE7059801380590E7E7059834
:1028500020B9FFE700208DF8270031E0FFE704985A
:1028600001300490CDE70898FFF722FF0798C06970
:102870000390FFE70898FFF715FF01460020C907FE
:10288000009031B1FFE70398002818BF01200090A5
:10289000FFE70098C00720B1FFE7039801380390D5
:1028A000E8E7039820B9FFE700208DF8270007E04C
:1028B0000898006C0898406D01208DF82700FFE70C
:1028C0009DF827000AB080BD80B588B006900591BC
:1028D0000698059949680978FFF7CAFE0598C06906
:1028E0000490FFE70698FFF7DDFE01460020490748
:1028F0000029019006D4FFE70498002818BF0120A2
:102900000190FFE70198C00720B1FFE70498013864
:102910000490E7E7049820B9FFE700208DF81F0036
:1029200057E000200390FFE703980599097E88424D
:1029300022D2FFE70698FFF7A5FEFFE70698FFF70C
:10294000B1FE000700280BD4FFE70698FFF7AAFEA8
:10295000C00720B9FFE700208DF81F0039E0EDE740
:102960000698FFF797FE05990969039A8854FFE7CF
:10297000039801300390D7E70698FFF799FE059872
:10298000C0690290FFE70698FFF78CFE0146002021
:10299000C907009031B1FFE70298002818BF012055
:1029A0000090FFE70098C00720B1FFE702980138C8
:1029B0000290E8E7029820B9FFE700208DF81F0099
:1029C00007E00698006C0698406D01208DF81F0006
:1029D000FFE79DF81F0008B080BD00BF80B584B040
:1029E000039002910398029949680978FFF740FE25
:1029F00003984FF4147101220192FFF765FE0198CC
:102A0000029988600299002048610299087B013888
:102A1000087304B080BD00BF80B584B003900291FC
:102A200001929DF80400400600280FD5FFE70398A7
:102A30004FF414710022FFF747FE0298406A20B15C
:102A4000FFE70298416A8847FFE7AEE09DF804007F
:102A5000C006002841D5FFE70298807801281BD1E5
:102A6000FFE7039850210022FFF72EFE0398042170
:102A70000122FFF729FE0298007E40B1FFE703988C
:102A8000FFF700FE0299087E0138087603E00398FC
:102A9000FFF70EFEFFE71FE00298007B48B9FFE753
:102AA000039850210022FFF70FFE0398FFF700FE66
:102AB00011E00299087B013808730398DDF808C01B
:102AC000DCF80410DCF80820531CCCF80830895CD2
:102AD000FFF7CEFDFFE7FFE766E09DF80400400743
:102AE000002830D5FFE70298007EB0B9FFE70398D1
:102AF000FFF7D0FDDDF808C0DCF81010DCF814207A
:102B0000531CCCF814308854039804210022FFF79A
:102B1000DBFD0398FFF7CCFD14E00299087E013835
:102B200008760398FFF7B6FDDDF808C0DCF8101052
:102B3000DCF81420531CCCF8143088540398FFF7A9
:102B4000A1FDFFE72FE09DF805008007002829D5AB
:102B5000FFE703984FF400710022FFF7B5FD0298DC
:102B6000007B20B9FFE70298007E68B1FFE702987A
:102B7000406A40B1FFE70298416A88470398006CB9
:102B80000398406DFFE70CE00298006A40B1FFE750
:102B90000298016A88470398006C0398406DFFE72C
:102BA000FFE7FFE7FFE7FFE7FFE704B080BD00BFF7
:102BB00080B582B0019000910198406B800600289A
:102BC00013D5FFE701986021FFF7A6FD0198DDF816
:102BD00000C0DCF80020DCF80810531CCCF80030F2
:102BE00011F82210FFF744FDFFE700990868C96853
:102BF000884204D1FFE7009900200860FFE702B097
:102C000080BD00BF80B582B0019000910198FFF7B0
:102C100049FD000700280FD5FFE70198FFF73AFDAF
:102C2000DDF800C0DCF80420DCF80810531CCCF8F8
:102C3000043041F82200FFE700994868C9688842DB
:102C400004D1FFE7009900204860FFE702B080BD93
:102C500080B584B00390029101929DF80400400772
:102C600000280FD5FFE70398FFF714FDDDF808C033
:102C7000DCF80420DCF80810531CCCF8043041F8D0
:102C80002200FFE79DF804008006002813D5FFE727
:102C900003986021FFF740FD0398DDF808C0DCF8D9
:102CA0000020DCF80810531CCCF8003011F822107A
:102CB000FFF7DEFCFFE702990868C968884204D183
:102CC000FFE7029900200860FFE702994868C96899
:102CD000884204D1FFE7029900204860FFE704B072
:102CE00080BD000082B001908DF803109DF80300B4
:102CF000C00748B1FFE7019A41F22801C4F202017E
:102D000008681043086008E0019A41F22801C4F203
:102D10000201086890430860FFE702B0704700BFF7
:102D200082B001908DF803109DF80300C00748B1F0
:102D3000FFE7019A41F23001C4F202010868104332
:102D4000086008E0019A41F23001C4F2020108680B
:102D500090430860FFE702B0704700BF82B0019067
:102D60008DF803109DF80300C00748B1FFE7019AF2
:102D700041F22C01C4F2020108681043086008E027
:102D8000019A41F22C01C4F20201086890430860E4
:102D9000FFE702B0704700BF81B00090009A41F297
:102DA0001401C4F20201086810430860009A086820
:102DB0009043086001B0704781B00090009A41F2E2
:102DC0001C01C4F20201086810430860009A0868F8
:102DD0009043086001B0704781B00090009A41F2C2
:102DE0001801C4F20201086810430860009A0868DC
:102DF0009043086001B0704781B08DF8030041F244
:102E00000401C4F2020108689DF8032062F31B600C
:102E1000086001B0704700BF82B001900091019836
:102E200042F20041C4F2010188420AD1FFE741F2B7
:102E30006001C4F202010868009A62F303000860AE
:102E400012E0019842F60001C4F2010188420AD161
:102E5000FFE741F26401C4F202010868009A62F3DC
:102E600003000860FFE7FFE702B0704782B00190FF
:102E70000091019842F20041C4F2010188420AD156
:102E8000FFE741F26001C4F202010868009A62F3B0
:102E90001020086012E0019842F60001C4F201011E
:102EA00088420AD1FFE741F26401C4F202010868D6
:102EB000009A62F310200860FFE7FFE702B0704756
:102EC00081B0009041F27001C4F202010868009ADA
:102ED00062F30600086001B0704700BF81B08DF852
:102EE00003009DF80300C00748B1FFE741F27801F5
:102EF000C4F20201086840F48070086008E041F202
:102F00007801C4F20201086820F480700860FFE7CD
:102F100001B0704781B0009041F27801C4F2020123
:102F20000868009A62F30400086001B0704700BFAF
:102F300081B0009041F27C01C4F202010868009A5D
:102F400062F30100086001B0704700BF81B08DF8E6
:102F500003009DF80300C00748B1FFE741F23401C8
:102F6000C4F20201086820F08070086008E041F2B5
:102F70003401C4F20201086840F080700860FFE785
:102F800001B0704781B08DF803009DF80300C007C1
:102F900048B1FFE741F23401C4F20201086840F48D
:102FA0008030086008E041F23401C4F20201086890
:102FB00020F480300860FFE701B0704781B08DF8E1
:102FC00003009DF80300C00748B1FFE741F2340158
:102FD000C4F20201086840F40040086008E041F2D1
:102FE0003401C4F20201086820F400400860FFE7E1
:102FF00001B0704781B00090009800F0030241F2E8
:103000003401C4F20201086840EA0220086001B0FD
:10301000704700BF81B08DF803009DF80300C00722
:1030200048B1FFE741F23401C4F20201086840F000
:103030000400086008E041F23401C4F202010868AB
:1030400020F004000860FFE701B0704741F234014E
:10305000C4F20201086800F002000860704700BF77
:1030600081B08DF803009DF80300C00748B1FFE769
:1030700041F23401C4F20201086840F00100086026
:1030800008E041F23401C4F20201086820F00100B6
:103090000860FFE701B0704781B08DF803009DF82C
:1030A000032041F23801C4F20201086810400860B0
:1030B00001B0704741F23801C4F202014FF0807054
:1030C0000860704781B08DF803009DF80300C007C9
:1030D00048B1FFE741F23801C4F20201086840F04C
:1030E0008000086008E041F23401C4F2020108687F
:1030F00020F080000860FFE701B0704781B08DF8D4
:1031000003009DF80300C00748B1FFE741F2380112
:10311000C4F20201086840F04000086008E041F293
:103120003401C4F20201086820F040000860FFE7A3
:1031300001B0704781B08DF803009DF80300C0070F
:1031400048B1FFE741F23801C4F20201086840F0DB
:103150002000086008E041F23401C4F2020108686E
:1031600020F020000860FFE701B0704781B08DF8C3
:1031700003009DF80300C00748B1FFE741F23801A2
:10318000C4F20201086840F00100086008E041F262
:103190003401C4F20201086820F001000860FFE772
:1031A00001B0704784B0039002910398C06920F089
:1031B000770001900298007A00F00301019840EA3C
:1031C000011001900298407A012805D0FFE702988B
:1031D000407A032805D1FFE7019840F004000190F0
:1031E000FFE70298407A022805D0FFE70298407A6C
:1031F000032805D1FFE7019840F040000190FFE768
:103200000298807A012805D1FFE7019840F001007B
:103210000190FFE70298807A022805D1FFE7019824
:1032200040F003000190FFE701980399C8610398FB
:10323000806940F21C71884300900299C87A4A7BE9
:10324000897BC00040EA422001F0010140EA0121EF
:103250000098084300900298007B012805D1FFE701
:10326000009840F004000090FFE7009803998861FF
:10327000029908684968B0FBF1F0000903990862F7
:10328000029908684968B0FBF1F000F00F0003995B
:10329000486204B0704700BF82B001908DF80310FF
:1032A0009DF80300C00730B1FFE70199886940F03D
:1032B0000100886105E00199886920F001008861BA
:1032C000FFE702B0704700BF83B0029001918DF814
:1032D00003209DF80300C00730B1FFE7019A02996F
:1032E00008691043086105E0019A02990869904352
:1032F0000861FFE703B0704781B000900098006953
:1033000001B0704782B001908DF803109DF8030062
:10331000C00730B1FFE70199886940F00200886179
:1033200005E00199886920F002008861FFE702B09A
:10333000704700BF82B001908DF803109DF8030024
:103340000199086002B0704781B000900098406811
:10335000C0B201B0704700BF81B000900098806893
:1033600001B0704781B000900098C06801B070470C
:1033700082B00190009100980199486102B07047B5
:1033800081B000900098043001B0704781B0009087
:10339000009801B0704700004EF68851CEF200014F
:1033A000086840F4700008604EF67850CEF20000D5
:1033B0000068C00730B3FFE74EF61450CEF20000AD
:1033C00000688003002801D5FFE71AE0BFF34F8FA4
:1033D000BFF36F8F4EF65071CEF2000100200860EF
:1033E000BFF34F8FBFF36F8F4EF61451CEF2000133
:1033F000086840F400300860BFF34F8FBFF36F8F51
:10340000FFE7FFE7704700000649074A0868504396
:1034100043F23902104408604008704701490860CF
:1034200070470000000000306D4EC6412DE9FE4F90
:10343000804681EA0300C00F0C46009021F0004155
:1034400023F00045B8EB0200A94105D240462146D1
:1034500090461C460B46024623F00040104347D0DE
:10346000270DC7F30A00C3F30A510290401A0190D6
:1034700040286BDAC3F3130040F4801B0098924697
:1034800020B10023D2EB030A63EB0B0B01985946E2
:10349000C0F14002504600F029F906460D4650465C
:1034A0005946019A00F041F910EB080061410024EF
:1034B00087EA115284EAE7731A4340D0009A62B354
:1034C000019A012A4FEA075215DC001B61EB020149
:1034D0004FF0004202EA0752CDE90042001C41F5DC
:1034E000801132462B4600F041F903B0BDE8F08F61
:1034F00040462146F9E7001B61EB0201001C41F543
:10350000801300185B412018A2F5001747EB030158
:1035100040EAD570B6196D4111E06D084FEA3606E4
:1035200045EAC0754FEA0752001B61EB0201001C1F
:1035300041F5801149084FEA3000001951413246E7
:103540002B4603B0BDE8F04F00F001B9009801220E
:1035500040000023D0EB020263EBE07300982146A9
:103560004FEAE074B8EB000061EB0401E9E783F097
:1035700000435BE781F0004158E72DE9FE4F81EA07
:10358000030404F0004421F0004100944FF0000BCC
:1035900023F0004350EA01045ED052EA03045BD0FA
:1035A000C3F30A54C1F30A552C44A4F2F334019432
:1035B000A0FB0254C1F3130141F48011C3F31303C0
:1035C00043F4801301FB024400FB034E840A970A74
:1035D00044EA815447EA8357A4FB076802958D0AA1
:1035E00005FB07854FEA932C04FB0C542705029D2D
:1035F0004FEA065847EA1637B5EB08056EEB070C9D
:10360000870E920E47EA811742EA8312A7FB020156
:10361000B6EB0B0164EB00042B0D43EA0C335E1890
:1036200044EB1C50DA465146E7FB0201C5F3130494
:103630004FEA0B3343EA14534FEA0432019C43EA46
:103640000603A4F10C040294009CCDE900B400F040
:103650008DF803B0BDE8F08F00200146F9E730B5E2
:103660000B46014600202022012409E021FA02F540
:103670009D4205D303FA02F5491B04FA02F52844DA
:10368000151EA2F10102F1DC30BD2DE9F05F054607
:10369000002092469B4688460646814640241BE011
:1036A000284641464746224600F02FF853465A46E0
:1036B000C01A914110D311461846224600F016F860
:1036C0002D1A67EB01084F4622460120002100F029
:1036D0000DF817EB00094E41201EA4F10104DFDCB8
:1036E000484631462A464346BDE8F09F202A04DB7F
:1036F000203A00FA02F1002070479140C2F1200305
:1037000020FA03F3194390407047202A04DB203A43
:1037100021FA02F00021704721FA02F3D040C2F1F1
:1037200020029140084319467047202A06DBCB1738
:10373000203A41FA02F043EAE07306E041FA02F36C
:10374000D040C2F12002914008431946704710B59D
:10375000141E73F1000408DA401C41F100019218B4
:103760005B411A4301D120F0010010BD2DE9F04D5D
:1037700092469B4611B1B1FA81F202E0B0FA80F2B2
:1037800020329046FFF7B2FF04460F4640EA0A0097
:1037900041EA0B0153465A46084313D0114653EAF7
:1037A000010019D0C8F140025046FFF7AEFF0546B0
:1037B0000E46504659464246FFF798FF084305D04B
:1037C000012004E020463946BDE8F08D0020054385
:1037D00046EAE0762C4337430A986305E40AA0EBF7
:1037E00008000022FD0A44EA47540A3002D50020AE
:1037F0000146E9E7010510196941DDE908450019AD
:103800006941BDE8F04DA2E72DE9F04D81EA0304DE
:1038100004F0004B21F0004514464FF0000A23F05D
:10382000004150EA050220D054EA01021DD0C5F340
:103830000A570246C5F31303C1F31300C1F30A5636
:1038400040F4801543F48013A7EB0608101BD646FE
:1038500008F2FD3873EB050002D308F1010801E01E
:1038600092185B41B8F1000F03DA00200146BDE871
:10387000F08D00204FF48011064684460EE0171BA1
:1038800073EB050705D3121B63EB050306434CEAF4
:10389000010C49084FEA300092185B4150EA0107D9
:1038A000EDD152EA030012D082EA040083EA050156
:1038B000084305D0101BAB4106D20122002306E0CD
:1038C00000224FF0004302E06FF0010253101AEBA8
:1038D00006004CEB085110EB0A0041EB0B01BDE870
:1038E000F04DFFF734BFC1F30A52C1F3130140F2A8
:1038F000FF3341F480119A4202DA002001467047FA
:1039000040F233439A42A2F2334202DC5242FFF7C2
:10391000FCBEFFF7EBBE000030B5041E71F10004E1
:1039200004DB4FF00044404264EB0101141E73F1CC
:10393000000405DB1C464FF00043524263EB0403D6
:10394000994208BF904230BD064C074D06E0E06842
:1039500040F0010394E8070098471034AC42F6D3D6
:10396000FCF7F0FFD4420008F44200080FB4054B06
:1039700010B503A9044A029800F0DAF810BC5DF80B
:1039800014FB0000751000080400003002E008C8B5
:10399000121F08C1002AFAD170477047002001E0C9
:1039A00001C1121F002AFBD1704700002DE9FF5F03
:1039B00082B00021DDE90430020DDDF840B00343A0
:1039C00018D044F61050A2F2FF3242431514119859
:1039D00001281FD0A5EB0B00401C5FEA000A4FF046
:1039E00000064E4FDFF83891B046504615D5CAF163
:1039F000000413E0119801244AA3012801D16FEAC1
:103A00000B010298119AC0E90031C0E9024206B0E8
:103A1000BDE8F09FCBF10000DFE704460021404AFB
:103A2000491842EB0450CDE9001012E0E00707D03E
:103A300032463B4640464946FFF79FFD8046894651
:103A400032463B4610461946FFF797FD06460F469D
:103A50006410002CEAD1DDE90401DDE90023BAF1AC
:103A6000000F06DAFFF789FD42464B46FFF785FD5A
:103A700005E0FFF7C9FE42464B46FFF7C5FE044688
:103A80000E460022284BFFF747FF03D84FF0FF30C8
:103A9000014607E00022254B20463146FFF7C6FCD1
:103AA000FFF721FF102409E0002C0ADB0A22002383
:103AB000FFF7EBFD039B30321A55641E50EA0102FA
:103AC000F2D1641C039AC4F111031444119A012A1F
:103AD00003D0012208430DD10AE0084304D000209E
:103AE0004FF0110B119072E7A3EB0B056D1E0DE06B
:103AF0005B4504DD4FF0000205F1010504E003DA47
:103B00004FF00002A5F10105002AECD002981199AE
:103B1000C0E90231C0E9004579E700000000144027
:103B20000000F03F300000000000F0430000E03FE4
:103B30002DE9FF4F95B09B468946064600250FE2CA
:103B4000252877D100242746F84A0121059400E072
:103B5000044316F8013F203B01FA03F01042F7D16D
:103B600030782A2811D06FF02F033078A0F130027E
:103B7000092A16D8059A44F0020402EB820203EBEC
:103B800042021044761C0590EFE759F8042B059289
:103B9000002A03DA504244F40054059044F0020431
:103BA000761C30782E2816D116F8010F44F0040444
:103BB0002A280DD06FF02F023078A0F13003092BA6
:103BC00009D807EB870302EB4303C718761CF3E71A
:103BD00059F8047B761C30786C280FD006DC4C2812
:103BE00017D068280DD06A2814D104E0742810D0AA
:103BF0007A280FD10DE044F400140AE044F4801454
:103C000001E044F440147278824202D104F5801439
:103C1000761C761C307866280BD013DC582877D0B9
:103C200009DC002875D04528F6D04628F4D047286E
:103C30001AD19DE118E0632835D0642879D0652831
:103C400012D195E1702873D008DC6728F1D069287B
:103C50006FD06E280DD06F2806D1B5E073282CD018
:103C6000752875D0782874D05A46179990476D1CDE
:103C700075E1C4F30250022809D003280DD0D9F809
:103C8000001004280DD00D6009F1040967E1D9F88E
:103C90000010EA17C1E90052F6E7D9F800100D80CC
:103CA000F2E70D70F0E719F8041B8DF80010002002
:103CB0008DF80100EA46012003E059F804AB4FF00B
:103CC000FF3061074FF0000102D40DE008F101015F
:103CD0008846B9420FDA8045F8DB1AF80810002947
:103CE000F4D108E008F1010188468142FADB1AF8B4
:103CF00008100029F6D105985B46A0EB080721467D
:103D00003846179A00F094FA284400EB080507E0BB
:103D10004DE029E10DE01AF8010B5A46179990473A
:103D2000B8F10108F7D25B4621463846179A13E1ED
:103D300042E00A220092C4F302524FF0000A022A23
:103D400008D059F804CB032A4FEAEC710AD00DE0F1
:103D500029E02AE009F1070121F00702F2E802C197
:103D6000914609E00FFA8CFC4FEAEC71042A03D16A
:103D70004FFA8CFC4FEAEC71002907DA0A46002161
:103D8000DCF1000C61EB02012D2202E0220504D5DA
:103D90002B228DF80420012203E0E20701D020222B
:103DA000F7E7904659E00A2102E010220DE01021C9
:103DB0004FF0000A00910BE010224FF0000A44F08F
:103DC00004040827009203E008224FF0000A009242
:103DD000C4F30252022A05D059F804CB0021032A69
:103DE00008D009E009F1070121F00702F2E802C159
:103DF000914605E01FFA8CFC042A01D10CF0FF0C5F
:103E00004FF00008220728D5702806D0009B83F0C9
:103E1000100353EA0A0305D00EE040228DF8042077
:103E2000012208E05CEA010206D030228DF804206D
:103E30008DF8050002229046009B83F0080353EAA8
:103E40000A030AD15CEA010201D1620705D53022DA
:103E50008DF804204FF001087F1E582804D034A0AC
:103E600003900EA802900DE036A0F9E75346604695
:103E7000009AFFF70AFC84460398825C0298401E71
:103E8000029002705CEA0100F0D1029806A9081ABB
:103E900000F1200A600702D524F4803400E00127F5
:103EA000574502DDA7EB0A0000E0002000EB0A0105
:103EB000009005984144401A0590E00306D45B4603
:103EC0002146179A059800F0B3F90544002706E04B
:103ED00001A85A46C05D179990476D1C7F1C474545
:103EE000F6DBE0030CD55B462146179A059800F0F7
:103EF0009FF9054404E030205A46179990476D1CFD
:103F00000099481E00900029F5DC08E0029802990B
:103F10005A460078491C0291179990476D1CBAF1D6
:103F20000001AAF1010AF1DC65E1000009280100A5
:103F3000303132333435363738396162636465661F
:103F400000000000303132333435363738394142E1
:103F5000434445460000000000F058F90544761C33
:103F6000307800287FF4ECAD19B02846BDE8F08F1A
:103F7000620700D4062709F1070222F0070CFCE8CB
:103F80000223E14603F000485FEA080C02D00FF27A
:103F9000702C0DE05FEA045C02D50FF2682C07E09C
:103FA0005FEAC47C02D00FF2602C01E0AFF2700C2B
:103FB0004FF0FF3823F00043CDF850C065280CD0F7
:103FC00006DC452809D046281DD047283DD13DE0D4
:103FD000662818D067287ED138E00021112F01DB38
:103FE000112000E0781CCDE9000106A90EA8FFF71A
:103FF000DDFCDDE90F010E9A03910021009207F12B
:10400000010A04914DE04FF000400097CDE9011006
:1040100006A90EA8FFF7CAFCDDE90F0203920E9B6A
:1040200011990022DDF80CA00093049211B9791CBB
:1040300000EB010AB7EB0A0004D4C0F1FF3007F12E
:10404000010A0490AAEB0700019044E0012F00DA76
:1040500001270021112F01DD112000E03846CDE9B4
:10406000000106A90EA8FFF7A1FCDDE90F010E9AD9
:104070000391002104910092BA4621070CD40399C0
:10408000514500DA8A46BAF1010F05DD009AAAF11E
:104090000101515C302908D0B84202DA10F1040F56
:1040A00006DA0121CDE9011015E0AAF10101E9E7E5
:1040B000002805DC049901440491AAEB000102E008
:1040C000411C514500DD8A460499401A401C01906C
:1040D0004FF000400290200704D40198504501DBC6
:1040E000CDF8048000208DF84F0002980DF14F07A5
:1040F000B0F1004F25D02B200E9002984FF002080F
:1041000000280CDA404202902D200E9007E00A2190
:104110000298FFF7A4FA3031029007F8011DB8F1B8
:104120000001A8F10108F2DC02980028EFD1791E05
:104130000E980870307800F0200040F0450007F835
:10414000020D12A8C01B00F107081498007800B1F6
:10415000012000EB0A01019801EBE0710598414450
:10416000401A401E0590E00306D45B462146179A8C
:10417000059800F05DF805441498007818B15A4687
:10418000179990476D1CE00324D55B462146179A8A
:10419000059800F04DF805441CE00498002807DB62
:1041A000DDE90301884203DD0098405C179901E0D6
:1041B000179930205A469047049805F10105401C94
:1041C00004900198401E019004D12E205A46179960
:1041D00090476D1CBAF10001AAF1010ADDDC05E08F
:1041E00017F8010B5A46179990476D1CB8F100015A
:1041F000A8F10108F4DC5B462146179A0598ABE666
:104200002D0000002B000000200000002DE9F041EF
:10421000044600251E461746880404D405E03946A6
:104220002020B0476D1C641EF9D52846BDE8F081FA
:104230002DE9F041044600251E469046C80301D5ED
:10424000302700E02027880404D505E041463846A1
:10425000B0476D1C641EF9D52846BDE8F08100000A
:104260000200000002000000020000000200000046
:104270000080004001000200506F7420566F6C7483
:10428000616765203A2025646D560D0A002D3E4178
:104290005432344330322054657374205265737540
:1042A0006C74203A2046616C73650D0A002D3E4106
:1042B0005432344330322054657374205265737520
:1042C0006C74203A20537563636573730D0A002381
:1042D00000000000F4420008000000301C00000054
:1042E0008C390008104300081C000030BC0100009D
:1042F0009C39000800000000000000000004044099
:1043000000040440000404400004044001000000D4
:040000050800093DA9
:00000001FF
