:020000040800F2
:1000000040020020D9000008FF000008010100089C
:1000100003010008050100080701000800000000B6
:1000200000000000000000000000000009010008BE
:1000300000000000000000000D010008F9060008A3
:100040001101000811010008000000001101000862
:100050001101000811010008110100081101000838
:100060000000000000000000000000000000000090
:100070001101000811010008110100080000000032
:10008000110100080000000000000000110100083C
:100090000000000000000000000000001101000846
:1000A000000000001101000800000000890800089D
:1000B0001101000800000000000000000000000026
:1000C0000448854600F04EF800480047790B0008C8
:1000D000C046C046400200200E4880F308880E4803
:1000E0000168090E0D4A914205D10D480D49016084
:1000F0000D480E4901600E4880470E480047FEE754
:10010000FEE7FEE7FEE7FEE7FEE7FEE7FEE7FEE7C7
:10011000FEE7000040020020040000001F00000075
:100120001810024001000000000001400000000023
:1001300019070008C100000830B50B460146002031
:100140002022012409E00D46D5409D4205D31D46DD
:100150009540491B2546954040191546521E002DD5
:10016000F1DC30BD064C0125064E05E0E36807CC06
:100170002B430C3C98471034B442F7D3FFF7A4FF4D
:100180003C1000085C10000800B587B0012108048D
:1001900000F08AF901A800F058FC4B20C001019042
:1001A000002168460181418181810C21C1810021AA
:1001B000018201A9224800F0EBFB0121480400F074
:1001C00063F901220C210920C00600F088F8012201
:1001D00003210920C00600F082F806A800F09CF870
:1001E0000121090368460183012181761821C17626
:1001F00006A90920C00600F025F806A800F08CF832
:10020000082168460183012181764821C17606A92B
:100210000920C00600F016F81B216846017501216F
:100220004175817505A800F0A9F801222021044834
:1002300000F093FB0121024800F048FB07B000BD2D
:1002400000380140F8B50246CD782F073F0FCD7832
:1002500010263540002D01D08D782F431446002004
:1002600011E085062B0E0D88012686403540002DB5
:1002700007D025680F269E40B5433E469E40354335
:100280002560451CE8B20828EBDB141D0D882D12F3
:100290000095002011E085062B0E01258540009E6B
:1002A0003540002D07D025680F269E40B5433E46B9
:1002B0009E4035432560451CE8B20828EBDBCD782D
:1002C000282D04D155690E883543556106E0CD7857
:1002D000482D03D115690E8835431561F8BD70B5F9
:1002E0004D07EB0E082902DA0546203501E00546E8
:1002F00024352C460F269E402568B54316469E4061
:100300003543256070BD024690680840002801D042
:10031000012070470020FCE70021C9430180012132
:1003200081700421C170704710B57D21C90010484B
:100330000068FFF701FF0446601E0E49884201D99C
:1003400001200CE0601E0C4948610321081F00F0E9
:10035000A7FB0020084988610720086100200028C9
:1003600001D000BFFEE70321081F00F099FB10BD7C
:1003700024000020FFFFFF0000E000E0817800295A
:1003800025D0174903221202891802789210920090
:10039000895802789207D30EFF229A4091434278FF
:1003A0009207120E03789B07DB0E9A4011430C4A0A
:1003B00003231B02D21803789B109B00D1500178B5
:1003C000CA06D20E01219140054A116007E001786A
:1003D000CA06D20E01219140014A80321160704755
:1003E00000E100E000B589B00121042000F05CF8D4
:1003F00001A800F03FFA00216846818081717D20CC
:10040000C000029068468181817301A91D4800F0F7
:1004100003FA04A800F0F3F9602168460174012191
:10042000417400200590002168460176FF210131CA
:10043000418304A9134800F0AFF90121480400F0FA
:1004400023F802220B210920C006FFF748FF08A865
:10045000FFF762FF0121C90268460184012108A853
:1004600081701821C17008A90920C006FFF7EAFEB3
:100470000121044800F076F90121024800F07EF9DC
:1004800009B000BD002C0140002905D0054A526981
:100490000243044B5A6104E0024A52698243014B11
:1004A0005A61704700100240002905D0054AD26900
:1004B0000243044BDA6104E0024AD2698243014BF1
:1004C000DA6170470010024038B504460BA000689E
:1004D000009000F03BF8206000F016F8606000F03B
:1004E00023F8A060064A5268064B1A4012096B4670
:1004F000995CA068FFF720FE206138BD0204060861
:10050000001002407040000000B500F01FF80449E0
:100510004968F02211400909024A515CC84000BDF7
:10052000001002401200002000B5FFF7EDFF054962
:100530004968072212021140090A034A515CC84067
:1005400000BD000000100240120000200949496867
:100550000C221140042905D0082905D00C2905D109
:10056000054805E0054803E0054801E0034800BFF1
:1005700000BF704700100240409C000000127A004B
:10058000006CDC0210B500F001F810BD002013492A
:10059000096801221143114A116000BF0F4909681F
:1005A000022211400029F9D011210D4A11600B4996
:1005B000496889088900094A516011464968022240
:1005C0001143064A516005E0044949688905080E4F
:1005D0008007800F0228F7D170470000001002400A
:1005E0000020024010B53148007800285CD004217A
:1005F0000920C006FFF787FE00282CD12C48008870
:10060000401C2B49088008460088142802DD012080
:1006100028490870264800882749884220DD27A0FD
:1006200000F034FA72B600BF00BF00BF00BF00BFC9
:10063000BFF34F8F00BF00BF00BF27482749C860E6
:1006400000BF00BF00BFBFF34F8F00BF00BF00BFA0
:1006500000BF00BFFDE7002015490880154908705C
:100660001F4801880088401C1D4A10801D480078E2
:10067000814219DD0020114608801B48008863284C
:1006800005DA19480088401C1749088002E000205C
:1006900015490880144800884000144A105A144A2A
:1006A000111A144800F0B5F810BD00000800002031
:1006B0000C00002009000020B80B00002D3E5472F1
:1006C000696767657220736F6674776172652072FF
:1006D00065736574210D0A000400FA0500ED00E061
:1006E0000E0000200A00002010000020740F0008F7
:1006F000E7030000002C014010B505480068401CCD
:1007000003490860012003490870FFF76BFF10BD23
:10071000040000200000002010B50F4800680121EF
:1007200008430D490860084640680C4908400A49DA
:100730004860084600680A490840074908600846BA
:100740000068012189048843034908609F20000450
:100750008860FFF717FF10BD001002400000FFF097
:10076000FFFFF6FE002904D0026801231A4302604D
:1007700003E002685208520002607047002905D069
:10078000426C0123DB031A43426404E0426C012300
:10079000DB039A434264704710B5826907231B0349
:1007A0009A430B781B020724240323401A438261D7
:1007B0000A7A12014B781B011A4330231A40036A4C
:1007C0003024A3431A4302624A6882634A7A1201C0
:1007D0008B781B011A43C0231A40036AC024A34329
:1007E0001A4302624A8992008B899B001A432301B3
:1007F0001A4043682401A3431A43426010BD0021FC
:10080000017041708170416001724172418181814A
:1008100070478AB28263704710B5026803231B02D7
:100820009A430B890324240223401A4302600F4A8F
:10083000904202D00E4A904207D1026870239A4338
:100840008B78702423401A430260084A904205D1F5
:10085000026B120A12028B7A1A4302634A68C2625E
:100860000A8882620122426110BD0000002C014012
:10087000000400400021C943416000210180018142
:10088000817081727047000010B520210C4800F083
:1008900034F8002812D02021094800F013F8084845
:1008A00000F0CAF8044600BF4021054800F01CF8DB
:1008B0000028F9D02146024800F0C3F810BD00001E
:1008C0000038014002688A4302607047002905D061
:1008D000C26801235B031A43C26004E0C2680123BB
:1008E0005B039A43C26070470246106808400028C4
:1008F00001D0012070470020FCE710B5024600201F
:10090000102904D1136810242340180924E0202959
:1009100004D113682024234058091DE0402904D144
:10092000136840242340980916E0802904D11368F5
:1009300080242340D8090FE0FF230133994203D1DB
:100940001368D807C00F07E001239B02994203D127
:1009500013684C102340580A10BD012903D001230D
:100960009B02994209D1002A03D043690B4343619A
:100970000CE043698B43436108E0002A03D0C3685D
:100980000B43C36002E0C3688B43C3607047000041
:1009900070B586B004460D460026E0680121490284
:1009A000884329890122520211400843E060E0682F
:1009B000D1008843A988D20011400843E060E06874
:1009C0000C21884369890C2211400843E0602069AA
:1009D00091028843E98892021140084320616069CE
:1009E00011118843A989121111400843606101A8BF
:1009F000FFF76AFD0E48844202D00E48844200D1BF
:100A0000039EA068000D0005A06030092968FFF76B
:100A100093FB0001A1680843A06030462968FFF7F6
:100A20008BFB0007000FA1680843A06006B070BDF3
:100A3000003801400044004001464868C005C00D30
:100A40007047CA05D20D426070474B21C901016051
:100A500000218180C18001810C214181002181819F
:100A6000704708B501214804FFF70EFD6846FFF7FF
:100A700053FC042168460180012181704821C17026
:100A800069460920C006FFF7DDFB08BD10B5024A24
:100A9000024900F050F810BD550B00083800002046
:100AA00010B5002819DB1A4A03231B02D218830849
:100AB0009B00D2588307DC0EFF23A3409A438B0789
:100AC0001B0E8407E40EA3401A43114B0324240297
:100AD0001B198408A4001A5118E00E4A03071B0FC3
:100AE000083B9B089B00D2588307DC0EFF23A340E2
:100AF0009A438B071B0E8407E40EA3401A43054B51
:100B00000407240F083CA408A4001A5110BD0000DB
:100B100000E100E01CED00E002E008C8121F08C17F
:100B2000002AFAD170477047002001E001C1121F6E
:100B3000002AFBD17047F8B516460F46044600253B
:100B400003E03946B047641C6D1C20780028F8D1BA
:100B50002846F8BD70B504460D46E1B20548FFF7DA
:100B600070FF00BF40210348FFF7BEFE0028F9D008
:100B7000204670BD00380140FFF7D6FBFFF704FBAD
:100B8000FFF730FCFFF76DFF34A0FFF77FFF3AA0BF
:100B9000FFF77CFF40A0FFF779FF45A0FFF776FF46
:100BA0004EA0FFF773FF51A0FFF770FF57A0FFF7AC
:100BB0006DFF5DA0FFF76AFF68A0FFF767FF77A0F2
:100BC000FFF764FF39A0FFF761FF7FA0FFF75EFF2B
:100BD00087A0FFF75BFF8EA0FFF758FF93A0FFF7FA
:100BE00055FF9CA0FFF752FFA1A0FFF74FFFA5A064
:100BF000FFF74CFFA8A0FFF749FF68A0FFF746FFEB
:100C00002AA0FFF743FFADA0FFF740FFB0A0FFF71A
:100C10003DFFBFA0FFF73AFF0120CD4908701BE060
:100C2000CC480078002817D00020CA490870CA486C
:100C30000078232805DAC84800780A30C6490870C9
:100C400002E00520C4490870C4A0FFF71FFF00BFE1
:100C5000C04800780028FBD1E2E70000426F6172D3
:100C600064204E616D65203A20465448522D47302D
:100C70003030310D0A000000546172676574204DF8
:100C80004355203A204D4D333247303030314131D9
:100C900054430D0A00000000426F61726420496EE7
:100CA000666F726D6174696F6E203A200D0A0000E4
:100CB0002D2D2D2D2D2D2D2D2D2D204D4D33324C07
:100CC000494E4B2D4F4220426F617264202D2D2DD5
:100CD0002D2D2D2D2D2D2D0D0A00000023204D4DE5
:100CE00033324C494E4B2D4F420D0A002D205357A5
:100CF0004420636F6D6D756E69636174696F6E20FA
:100D0000737570706F72740D0A0000002D205669A3
:100D1000727475616C20434F4D20706F727420287F
:100D2000564350290D0A00002D20447261672D6141
:100D30006E642D64726F7020666C617368207072CF
:100D40006F6772616D6D696E67206F662062696E94
:100D50006172792066696C65730D0A002D205374E9
:100D600061747573204C454420626C696E6B696ECA
:100D70006720647572696E672074686520636F6DA3
:100D80006D756E69636174696F6E20776974682030
:100D90007468652050430D0A000000002D20436157
:100DA0006E2062652062726F6B656E206F666620D2
:100DB000666F7220696E646570656E64656E74201E
:100DC0007573650D0A0000002D2D2D2D2D2D2D2D57
:100DD0002D2D2054617267657420426F617264200A
:100DE0002D2D2D2D2D2D2D2D2D2D0D0A000000002A
:100DF0002320546172676574204D4355203A204D7D
:100E00004D33324730303031413154430D0A000008
:100E10002D204475616C207061636B616765207380
:100E20007570706F72740D0A000000002D2D204D3A
:100E30004D333247303030314131542843292F541B
:100E400053534F503230202244656661756C7422D2
:100E50000D0A00002D2D204D4D33324730303031FA
:100E600041314E2843292F51464E32300D0A0000A1
:100E70002D20312055736572204B6579284B31291F
:100E80000D0A00002D20312055736572204C6564D9
:100E9000284432290D0A00002D204D4D33324730B1
:100EA000303031413154432046756C6C20494F201D
:100EB000457870616E73696F6E0D0A0044656D6FE1
:100EC000204465736372697074696F6E3A0D0A002D
:100ED000312E507265737320746865207573657266
:100EE00020627574746F6E20746F206368616E6722
:100EF00065207468652075736572204C45442062D6
:100F00007265617468696E6720726174650D0A00AC
:100F1000322E507265737320746865207573657224
:100F200020627574746F6E20666F72203373207444
:100F30006F2074726967676572206120736F6C66D9
:100F4000776172652072657365740D0A0000000098
:100F500008000020090000200A0000202D3E5573E3
:100F60006572204B65792050726573736564210D3D
:100F70000A00000000000000000000000000000067
:100F80000000000000000000000000000000000061
:100F90000000000000000A0014001E0028003200BB
:100FA0003C00460050005A0064007D009600AF00EF
:100FB000E100FF002C017701C2010D025802A302DB
:100FC000D50220035C038403A103C803E003E70305
:100FD000E003C803A20384035C032003D502A30239
:100FE00058020D02C20177012C01FF00E100AF00A1
:100FF00096007D0064005A0050003C00460032001C
:101000001E000A00000000000000000000000000B8
:1010100000000000000000000000000000000000D0
:1010200000000000000000000000000000000000C0
:101030000000000000000000000000005C1000083C
:10104000000000203C000000180B00089810000869
:101050003C00002004020000280B000800000000F3
:10106000000000000000230000000000000000005D
:10107000000001020304010203040607080900003E
:10108000006CDC020000000000000000010203040C
:0810900006070809000000003A
:04000005080000C12E
:00000001FF
